S01B0000436170616374616E63654D6561737572696E672E737265637B
S11300000C9434000C9451000C9451000C94510045
S11300100C9451000C9451000C9451000C94510018
S11300200C9451000C9451000C9451000C94510008
S11300300C9451000C9451000C9451000C945100F8
S11300400C9451000C9451000C9451000C945100E8
S11300500C9451000C9451000C9451000C945100D8
S11300600C9451000C94510011241FBECFEFD8E022
S1130070DEBFCDBF11E0A0E0B1E0E0EBF6E002C0EE
S113008005900D92A830B107D9F721E0A8E0B1E0BE
S113009001C01D92A930B207E1F70E94B2000C948E
S11300A056030C94000097B1E1E0F0E0082E01C083
S11300B0EE0F0A94EAF7E095E923E7B990917C0002
S11300C030E4639FB0011124692B60937C0090910C
S11300D07C00892B80937C0080917A00413099F4D4
S11300E0886080937A0080917A00282B20937A008C
S11300F080917A00806880937A0080917A0080648D
S113010080937A000895877F80937A0080917A00A3
S1130110282B20937A00089590917C00892B80935A
S11301207C0080917A00806880937A0080917A00C4
S1130130806480937A0080917A0084FFFCCF809160
S11301407A008F7E80937A00809178009091790074
S113015008958CE08093B8001092B90084E08093F5
S1130160BC000895CF93DF9300D000D01F92CDB789
S1130170DEB727E040E061E080E00E9453000E9487
S1130180A900209A3A9AEE24EA9483E0F82E38984B
S1130190429A80E00E948C008C0142980197873E2D
S11301A0934008F043C0389A289AB80180E090E060
S11301B00E9426022AE037ED43EC51E40E94B40287
S11301C04B015C01B701601B710B80E090E00E9461
S11301D026029B01AC01C501B4010E948501209156
S11301E004013091050140910601509107010E94DC
S11301F018012091000130910101409102015091B8
S113020003010E94850120E030E048EC52E40E94A2
S1130210B4020E94F701862F609308014AE0BE01F0
S11302206F5F7F4F90E00E942103B1CF2898AFCF3A
S11302305058BB27AA270E9430010C947A020E94CE
S11302406C0238F00E94730220F039F49F3F19F4D5
S113025026F40C9469020EF4E095E7FB0C94630217
S1130260E92F0E948B0258F3BA17620773078407B9
S1130270950720F079F4A6F50C94AD020EF4E09500
S11302800B2EBA2FA02D0B01B90190010C01CA014C
S1130290A0011124FF27591B99F0593F50F4503EF7
S11302A068F11A16F040A22F232F342F4427585FE9
S11302B0F3CF469537952795A795F0405395C9F701
S11302C07EF41F16BA0B620B730B840BBAF09150B9
S11302D0A1F0FF0FBB1F661F771F881FC2F70EC058
S11302E0BA0F621F731F841F48F48795779567952B
S11302F0B795F7959E3F08F0B0CF9395880F08F017
S11303009927EE0F9795879508950E9499010C946B
S11303107A020E94730258F00E946C0240F029F4A1
S11303205F3F29F00C94630251110C94AE020C94BB
S113033069020E948B0268F39923B1F3552391F368
S1130340951B550BBB27AA2762177307840738F040
S11303509F5F5F4F220F331F441FAA1FA9F335D09D
S11303600E2E3AF0E0E832D091505040E695001C51
S1130370CAF72BD0FE2F29D0660F771F881FBB1F0B
S1130380261737074807AB07B0E809F0BB0B802DE9
S1130390BF01FF2793585F4F3AF09E3F510578F015
S11303A00C9463020C94AE025F3FE4F3983ED4F3E2
S11303B0869577956795B795F7959F5FC9F7880FE9
S11303C0911D9695879597F90895E1E0660F771F3B
S11303D0881FBB1F621773078407BA0720F0621BCC
S11303E0730B840BBA0BEE1F88F7E09508950E94F7
S11303F0930288F09F5798F0B92F9927B751B0F01E
S1130400E1F0660F771F881F991F1AF0BA95C9F794
S113041014C0B13091F00E94AD02B1E008950C9483
S1130420AD02672F782F8827B85F39F0B93FCCF336
S1130430869577956795B395D9F73EF49095809511
S1130440709561957F4F8F4F9F4F0895E89409C031
S113045097FB3EF490958095709561957F4F8F4FF3
S11304609F4F9923A9F0F92F96E9BB279395F69509
S1130470879577956795B795F111F8CFFAF4BB0F87
S113048011F460FF1BC06F5F7F4F8F4F9F4F16C0EB
S1130490882311F096E911C0772321F09EE8872F75
S11304A0762F05C0662371F096E8862F70E060E031
S11304B02AF09A95660F771F881FDAF7880F9695AA
S11304C0879597F9089597F99F6780E870E060E051
S11304D008959FEF80EC089500240A9416161706D9
S11304E018060906089500240A9412161306140621
S11304F005060895092E0394000C11F4882352F084
S1130500BB0F40F4BF2B11F460FF04C06F5F7F4F3B
S11305108F4F9F4F089557FD9058440F551F59F022
S11305205F3F71F04795880F97FB991F61F09F3FDC
S113053079F087950895121613061406551FF2CF05
S11305404695F1DF08C0161617061806991FF1CF55
S113055086957105610508940895E894BB2766277C
S11305607727CB0197F908950E94C7020C947A0269
S11305700E946C0238F00E94730220F0952311F05F
S11305800C9463020C94690211240C94AE020E9430
S11305908B0270F3959FC1F3950F50E0551F629F36
S11305A0F001729FBB27F00DB11D639FAA27F00DC8
S11305B0B11DAA1F649F6627B00DA11D661F829FEF
S11305C02227B00DA11D621F739FB00DA11D621FD4
S11305D0839FA00D611D221F749F3327A00D611DF1
S11305E0231F849F600D211D822F762F6A2F1124D3
S11305F09F5750409AF0F1F088234AF0EE0FFF1F06
S1130600BB1F661F771F881F91505040A9F79E3F5C
S1130610510580F00C9463020C94AE025F3FE4F346
S1130620983ED4F3869577956795B795F795E795B2
S11306309F5FC1F7FE2B880F911D9695879597F9BB
S11306400895BB274A3031F4992322F4BDE29095F2
S113065081959F4F0C942D03BB27FB015527AA2797
S1130660880F991FAA1FA41710F0A41B839550513B
S1130670B9F7A05DAA3308F0A95DA193009779F7B3
S1130680B111B1931192CB010C944603DC01FC012E
S1130690672F71917723E1F7329704C07C916D93B2
S11306A070836291AE17BF07C8F30895F894FFCF23
S10B06B00000B8419A99F140E1
S9030000FC
