:100000000C9434000C94B4050C94E5050C94510048
:100010000C9451000C9451000C9451000C9451001C
:100020000C9451000C9451000C9451000C942D062A
:100030000C9451000C9451000C9451000C945100FC
:100040000C9451000C9451000C9451000C945100EC
:100050000C9451000C9451000C9451000C945100DC
:100060000C9400020C94510011241FBECFEFD8E075
:10007000DEBFCDBF11E0A0E0B1E0E2E7F2E102C0F7
:1000800005900D92AA30B107D9F721E0AAE0B1E0BE
:1000900001C01D92AB32B207E1F70E948D020C94B1
:1000A00037090C940000CF93DF9300D000D0CDB778
:1000B000DEB789836A834B832C8387E290E027E253
:1000C00030E0F90160812981422F50E021E030E0E9
:1000D00002C0220F331F4A95E2F720952623FC0128
:1000E00020838CE790E02CE730E0F9012081422F5B
:1000F0002A81222F30E000243695279507943695E3
:1001000027950794322F202D242BFC0120838CE788
:1001100090E02CE730E0F90130812981232BFC01AC
:1001200020838B81813031F58AE790E02AE730E047
:10013000F90120812860FC0120838AE790E02AE70A
:1001400030E0F90130812C81232BFC0120838AE7E8
:1001500090E02AE730E0F90120812068FC0120834B
:100160008AE790E02AE730E0F90120812064FC0171
:10017000208313C08AE790E02AE730E0F90120816C
:10018000277FFC0120838AE790E02AE730E0F9012D
:1001900030812C81232BFC01208300000F900F90D5
:1001A0000F900F90DF91CF910895CF93DF931F921F
:1001B000CDB7DEB7898387E290E027E230E0F9012E
:1001C00060812981422F50E021E030E002C0220FFF
:1001D000331F4A95E2F720952623FC0120838CE704
:1001E00090E02CE730E0F90130812981232BFC01DC
:1001F00020838AE790E02AE730E0F9012081206837
:10020000FC0120838AE790E02AE730E0F9012081B1
:100210002064FC01208300008AE790E0FC018081DB
:10022000882F90E080719927929582958F70892709
:100230009F708927019781F78AE790E02AE730E0ED
:10024000F90120812F7EFC01208388E790E0FC01EA
:10025000808191810F90DF91CF910895CF93DF93AB
:100260001F92CDB7DEB7898389E690E029E630E0BA
:10027000F90130812981232BFC0120838DE390E05B
:100280002DE330E0F90120812160FC012083000092
:100290000F90DF91CF910895CF93DF931F92CDB749
:1002A000DEB7898389E690E029E630E0F901208114
:1002B000422F2981222F30E0220F331F220F331FBC
:1002C000242BFC0120838DE390E02DE330E0F90145
:1002D00020812260FC01208300000F90DF91CF91EC
:1002E0000895CF93DF9300D0CDB7DEB79A8389838B
:1002F00089819A81909324018093230100000F90BB
:100300000F90DF91CF910895CF93DF9300D0CDB7B9
:10031000DEB79A83898389819A819093260180939D
:10032000250100000F900F90DF91CF910895CF939A
:10033000DF93CDB7DEB780910F0190911001A091AE
:100340001101B09112012091000130910101409101
:10035000020150910301BC01CD010E94D706DC01CE
:10036000CB018093040190930501A0930601B09303
:1003700007010000DF91CF910895CF93DF93CDB7B0
:10038000DEB780910F0190911001A0911101B09101
:1003900012018093000190930101A0930201B09398
:1003A00003010000DF91CF910895CF93DF9300D038
:1003B000CDB7DEB79A83898389819A8190930D01A5
:1003C00080930C0100000F900F90DF91CF91089562
:1003D000CF93DF931F92CDB7DEB78983F8948AEB72
:1003E00090E02981220FFC0120838CEB90E025EC2A
:1003F000FC012083789400000F90DF91CF91089545
:100400001F920F9200905F000F9211242F933F9341
:100410004F935F936F937F938F939F93AF93BF930C
:10042000EF93FF93CF93DF93CDB7DEB789EB90E0E7
:10043000FC018081882F90E0887F99278038910582
:1004400069F0813891051CF4892B81F139C0883A13
:100450009105A1F0883B9105E9F032C020910A0195
:1004600030910B018BEB90E0FC018081F901099543
:100470008CEB90E025ECFC01208328C080910C01DE
:1004800090910D01FC0109958CEB90E025ECFC01AD
:1004900020831CC080910C0190910D01FC010995F5
:1004A0008CEB90E025ECFC01208310C08CEB90E0FD
:1004B000FC0110828CEB90E025ECFC01208306C04F
:1004C0008CEB90E025ECFC01208300000000DF9124
:1004D000CF91FF91EF91BF91AF919F918F917F91BC
:1004E0006F915F914F913F912F910F9000925F001C
:1004F0000F901F901895CF93DF931F92CDB7DEB763
:1005000080910E0189838BEB90E02981FC0120838F
:1005100000000F90DF91CF910895CF92DF92EF927C
:10052000FF920F931F93CF93DF93CDB7DEB7A297C0
:100530000FB6F894DEBF0FBECDBF60E472E48FE06B
:1005400090E00E945B0624E040E061E080E00E94D1
:1005500053008BE792E00E94D50189E00E94E801F8
:100560008AE290E02AE230E0F90120812061FC017A
:1005700020838AE290E02AE230E0F9012081277F9F
:10058000FC0120838AE290E02AE230E0F901208138
:100590002B7FFC01208387E290E027E230E0F90125
:1005A00020812460FC01208383E00E942E0183E0EF
:1005B0000E944C0187E991E00E9471018DEB91E06E
:1005C0000E948401789487E290E027E230E0F9010C
:1005D00020812E7FFC01208388E290E028E230E039
:1005E000F90120812460FC01208380E00E94D50075
:1005F0009E838D8388E290E028E230E0F90120813B
:100600002B7FFC0120838D819E81883E934008F0E2
:1006100020C187E290E027E230E0F90120812160EB
:10062000FC0120838D819E81CC01A0E0B0E0BC0163
:10063000CD010E94F1077B018C018AE097EDA3ECCC
:10064000B1E49C01AD01C801B7010E94A808DC011A
:10065000CB016C017D018FEF93E09C018D819E8128
:10066000A901481B590BCA01CC01A0E0B0E0BC01B4
:10067000CD010E94F107DC01CB019C01AD01C70156
:10068000B6010E944907DC01CB017C018D018091FC
:10069000130190911401A0911501B09116019C01D4
:1006A000AD01C801B7010E94D806DC01CB018093DF
:1006B000130190931401A0931501B093160180913A
:1006C0001B0190911C01A0911D01B0911E0101968A
:1006D000A11DB11D80931B0190931C01A0931D01CE
:1006E000B0931E010E94A8069B01AC0180911701E6
:1006F00090911801A0911901B0911A01281B390B92
:100700004A0B5B0B8091080190910901CC01A0E09C
:10071000B0E0281739074A075B0708F49AC0C09071
:100720001301D0901401E0901501F0901601809112
:100730001B0190911C01A0911D01B0911E01BC01F3
:10074000CD010E94F107DC01CB019C01AD01C70185
:10075000B6010E944907DC01CB01809313019093FD
:100760001401A0931501B09316018091130190918B
:100770001401A0911501B091160180930F0190937F
:100780001001A0931101B093120180911301909177
:100790001401A0911501B091160120910001309132
:1007A00001014091020150910301BC01CD010E9461
:1007B000D706DC01CB017C018D0180910401909171
:1007C0000501A0910601B09107019C01AD01C8018E
:1007D000B7010E944907DC01CB0120E030E048EC82
:1007E00052E4BC01CD010E94A808DC01CB01BC0190
:1007F000CD010E94BB07DC01CB0180930E018091EB
:100800000E0188231CF410920E0107C080910E0186
:1008100085361CF084E680930E0110921B01109225
:100820001C0110921D0110921E01109213011092D2
:10083000140110921501109216010E94A806DC0105
:10084000CB018093170190931801A0931901B093E5
:100850001A0180911F01882369F489E290E0FC016C
:100860008081882F90E088709927892B19F081E08A
:1008700080931F0180911F01813009F095C089E2AA
:1008800090E0FC018081882F90E088709927892B67
:1008900009F48AC01A82198281C08BE290E02BE2AF
:1008A00030E0F901308120E12327FC01208380E042
:1008B00090E0A8ECB2E48B879C87AD87BE8720E0F0
:1008C00030E04AE753E46B857C858D859E850E94E8
:1008D000A808DC01CB018F87988BA98BBA8B20E00D
:1008E00030E040E85FE36F85788989899A890E94C2
:1008F000440788232CF481E090E09C8B8B8B3FC0D5
:1009000020E03FEF4FE757E46F85788989899A891E
:100910000E94A30818164CF520E030E040E251E4B4
:100920006B857C858D859E850E94A808DC01CB01A6
:10093000BC01CD010E94C207DC01CB019C8B8B8BDB
:100940000FC089E190E09E8B8D8B8D899E890197E8
:10095000F1F79E8B8D8B8B899C8901979C8B8B8B60
:100960008B899C89892B69F714C06F85788989895F
:100970009A890E94C207DC01CB019C8B8B8B8B89EF
:100980009C89988F8F8B8F89988D0197F1F7988F1D
:100990008F8B89819A8101969A83898389819A8133
:1009A00006970CF47ACF02C010921F0180912001AB
:1009B000882369F489E290E0FC018081882F90E02F
:1009C00084709927892B19F081E080932001809110
:1009D0002001813009F095C089E290E0FC0180811E
:1009E000882F90E084709927892B09F48AC01C8293
:1009F0001B8281C08BE290E02BE230E0F901308174
:100A000020E12327FC01208380E090E0A8ECB2E401
:100A10008F839887A987BA8720E030E04AE753E4BC
:100A20006F81788589859A850E94A808DC01CB01B1
:100A3000898F9A8FAB8FBC8F20E030E040E85FE376
:100A4000698D7A8D8B8D9C8D0E94440788232CF4B0
:100A500081E090E09E8F8D8F3FC020E03FEF4FE719
:100A600057E4698D7A8D8B8D9C8D0E94A308181692
:100A70004CF520E030E040E251E46F8178858985D3
:100A80009A850E94A808DC01CB01BC01CD010E941F
:100A9000C207DC01CB019E8F8D8F0FC089E190E0F2
:100AA00098A38F8F8F8D98A10197F1F798A38F8FBF
:100AB0008D8D9E8D01979E8F8D8F8D8D9E8D892B17
:100AC00069F714C0698D7A8D8B8D9C8D0E94C20749
:100AD000DC01CB019E8F8D8F8D8D9E8D9AA389A376
:100AE00089A19AA10197F1F79AA389A38B819C818F
:100AF00001969C838B838B819C8106970CF47ACF23
:100B000002C01092200180912001882309F05BCD62
:100B100089E290E0FC018081882F90E08470992721
:100B2000892B09F450CD80911F01813009F04BCD04
:100B300089E290E0FC018081882F90E088709927FD
:100B4000892B09F440CD10920001109201011092FE
:100B500002011092030110920401109205011092FB
:100B60000601109207012FCD1F920F9200905F0097
:100B70000F9211242F933F934F935F936F937F9323
:100B80008F939F93AF93BF93EF93FF93CF93DF9395
:100B9000CDB7DEB78091230190912401FC01099526
:100BA0000000DF91CF91FF91EF91BF91AF919F91A5
:100BB0008F917F916F915F914F913F912F910F9006
:100BC00000925F000F901F9018951F920F92009057
:100BD0005F000F9211242F933F934F935F936F9376
:100BE0007F938F939F93AF93BF93EF93FF93CF9395
:100BF000DF93CDB7DEB78091250190912601FC01EE
:100C000009950000DF91CF91FF91EF91BF91AF91D6
:100C10009F918F917F916F915F914F913F912F9114
:100C20000F9000925F000F901F901895CF93DF9365
:100C3000CDB7DEB7F89481E0DF91CF910895CF93DF
:100C4000DF9300D0CDB7DEB79A8389837894000014
:100C50000F900F90DF91CF9108951F920F92009007
:100C60005F000F9211248F939F93AF93BF93CF9305
:100C7000DF93CDB7DEB78091270190912801A09135
:100C80002901B0912A010196A11DB11D8093270170
:100C900090932801A0932901B0932A010000DF91CD
:100CA000CF91BF91AF919F918F910F9000925F0074
:100CB0000F901F901895CF93DF93CDB7DEB728978D
:100CC0000FB6F894DEBF0FBECDBF6D837E838F83DA
:100CD00098878D819E81AF81B88520E43FE140E017
:100CE00050E0BC01CD010E941509DA01C9018983D8
:100CF0009A83AB83BC8381E890E021E830E0F9017E
:100D000020812A60FC01208329E830E089819A81D2
:100D1000AB81BC81892F9A2FAB2FBB27F901808330
:100D200088E890E02981FC0120838FE690E02FE69F
:100D300030E0F90120812260FC0120830000289628
:100D40000FB6F894DEBF0FBECDBFDF91CF910895EF
:100D5000CF93DF9300D000D000D0CDB7DEB71E8296
:100D60000E9416068D830DC0809127019091280165
:100D7000A0912901B0912A0189839A83AB83BC8316
:100D80001D828D81882381F7CE0106960E941F0661
:100D900089819A81AB81BC81BC01CD0126960FB6B9
:100DA000F894DEBF0FBECDBFDF91CF9108955058AC
:100DB000BB27AA270E94EF060C9469080E945B08D3
:100DC00038F00E94620820F039F49F3F19F426F4AD
:100DD0000C9458080EF4E095E7FB0C945208E92FA8
:100DE0000E947A0858F3BA176207730784079507B9
:100DF00020F079F4A6F50C949C080EF4E0950B2EE7
:100E0000BA2FA02D0B01B90190010C01CA01A0015C
:100E10001124FF27591B99F0593F50F4503E68F1B7
:100E20001A16F040A22F232F342F4427585FF3CFF8
:100E3000469537952795A795F0405395C9F77EF4C9
:100E40001F16BA0B620B730B840BBAF09150A1F012
:100E5000FF0FBB1F661F771F881FC2F70EC0BA0F98
:100E6000621F731F841F48F4879577956795B79520
:100E7000F7959E3F08F0B0CF9395880F08F099271B
:100E8000EE0F9795879508950E942E0808F481E04B
:100E900008950E945D070C9469080E94620858F04A
:100EA0000E945B0840F029F45F3F29F00C9452083F
:100EB00051110C949D080C9458080E947A0868F30C
:100EC0009923B1F3552391F3951B550BBB27AA2703
:100ED00062177307840738F09F5F5F4F220F331F3D
:100EE000441FAA1FA9F335D00E2E3AF0E0E832D005
:100EF00091505040E695001CCAF72BD0FE2F29D008
:100F0000660F771F881FBB1F261737074807AB07D9
:100F1000B0E809F0BB0B802DBF01FF2793585F4F4E
:100F20003AF09E3F510578F00C9452080C949D08BD
:100F30005F3FE4F3983ED4F3869577956795B79530
:100F4000F7959F5FC9F7880F911D9695879597F93B
:100F50000895E1E0660F771F881FBB1F62177307B4
:100F60008407BA0720F0621B730B840BBA0BEE1FC9
:100F700088F7E09508950E94C2076894B1110C9417
:100F80009D0808950E94820888F09F5798F0B92F15
:100F90009927B751B0F0E1F0660F771F881F991FAE
:100FA0001AF0BA95C9F714C0B13091F00E949C08AC
:100FB000B1E008950C949C08672F782F8827B85FBC
:100FC00039F0B93FCCF3869577956795B395D9F706
:100FD0003EF490958095709561957F4F8F4F9F4F10
:100FE0000895E89409C097FB3EF49095809570951C
:100FF00061957F4F8F4F9F4F9923A9F0F92F96E965
:10100000BB279395F695879577956795B795F111D9
:10101000F8CFFAF4BB0F11F460FF1BC06F5F7F4F76
:101020008F4F9F4F16C0882311F096E911C0772388
:1010300021F09EE8872F762F05C0662371F096E891
:10104000862F70E060E02AF09A95660F771F881F60
:10105000DAF7880F9695879597F90895990F000804
:10106000550FAA0BE0E8FEEF16161706E807F9077A
:10107000C0F012161306E407F50798F0621B730B15
:10108000840B950B39F40A2661F0232B242B252B96
:1010900021F408950A2609F4A140A6958FEF811D39
:1010A000811D089597F99F6780E870E060E00895DA
:1010B0009FEF80EC089500240A9416161706180670
:1010C0000906089500240A9412161306140605064C
:1010D0000895092E0394000C11F4882352F0BB0FDD
:1010E00040F4BF2B11F460FF04C06F5F7F4F8F4F40
:1010F0009F4F089557FD9058440F551F59F05F3F7B
:1011000071F04795880F97FB991F61F09F3F79F029
:1011100087950895121613061406551FF2CF4695AB
:10112000F1DF08C0161617061806991FF1CF86952D
:101130007105610508940895E894BB276627772711
:10114000CB0197F908950E942E0808F48FEF0895B7
:101150000E94BB080C9469080E945B0838F00E944A
:10116000620820F0952311F00C9452080C94580852
:1011700011240C949D080E947A0870F3959FC1F386
:10118000950F50E0551F629FF001729FBB27F00D35
:10119000B11D639FAA27F00DB11DAA1F649F66278A
:1011A000B00DA11D661F829F2227B00DA11D621FD9
:1011B000739FB00DA11D621F839FA00D611D221F93
:1011C000749F3327A00D611D231F849F600D211D77
:1011D000822F762F6A2F11249F5750409AF0F1F0FA
:1011E00088234AF0EE0FFF1FBB1F661F771F881F63
:1011F00091505040A9F79E3F510580F00C94520841
:101200000C949D085F3FE4F3983ED4F38695779560
:101210006795B795F795E7959F5FC1F7FE2B880F08
:10122000911D9695879597F90895A1E21A2EAA1B0C
:10123000BB1BFD010DC0AA1FBB1FEE1FFF1FA21786
:10124000B307E407F50720F0A21BB30BE40BF50B83
:10125000661F771F881F991F1A9469F7609570950C
:10126000809590959B01AC01BD01CF010895F89444
:02127000FFCFAE
:0A12720033335340CDCC0842200373
:00000001FF
